{
  "contractName": "DuomlyRoulette",
  "abi": [
    {
      "constant": true,
      "inputs": [],
      "name": "betsCount",
      "outputs": [
        {
          "name": "",
          "type": "uint256"
        }
      ],
      "payable": false,
      "stateMutability": "view",
      "type": "function"
    },
    {
      "constant": true,
      "inputs": [],
      "name": "owner",
      "outputs": [
        {
          "name": "",
          "type": "address"
        }
      ],
      "payable": false,
      "stateMutability": "view",
      "type": "function"
    },
    {
      "constant": true,
      "inputs": [],
      "name": "games",
      "outputs": [
        {
          "name": "",
          "type": "uint256"
        }
      ],
      "payable": false,
      "stateMutability": "view",
      "type": "function"
    },
    {
      "constant": true,
      "inputs": [
        {
          "name": "",
          "type": "uint256"
        }
      ],
      "name": "history",
      "outputs": [
        {
          "name": "value",
          "type": "uint256"
        },
        {
          "name": "winnerAddress",
          "type": "address"
        },
        {
          "name": "blockNumber",
          "type": "uint256"
        }
      ],
      "payable": false,
      "stateMutability": "view",
      "type": "function"
    },
    {
      "constant": true,
      "inputs": [],
      "name": "betValue",
      "outputs": [
        {
          "name": "",
          "type": "uint256"
        }
      ],
      "payable": false,
      "stateMutability": "view",
      "type": "function"
    },
    {
      "constant": true,
      "inputs": [],
      "name": "maxAmountOfBets",
      "outputs": [
        {
          "name": "",
          "type": "uint256"
        }
      ],
      "payable": false,
      "stateMutability": "view",
      "type": "function"
    },
    {
      "constant": true,
      "inputs": [
        {
          "name": "",
          "type": "uint256"
        }
      ],
      "name": "players",
      "outputs": [
        {
          "name": "",
          "type": "address"
        }
      ],
      "payable": false,
      "stateMutability": "view",
      "type": "function"
    },
    {
      "constant": true,
      "inputs": [],
      "name": "lastWinner",
      "outputs": [
        {
          "name": "",
          "type": "address"
        }
      ],
      "payable": false,
      "stateMutability": "view",
      "type": "function"
    },
    {
      "constant": true,
      "inputs": [],
      "name": "totalBet",
      "outputs": [
        {
          "name": "",
          "type": "uint256"
        }
      ],
      "payable": false,
      "stateMutability": "view",
      "type": "function"
    },
    {
      "inputs": [
        {
          "name": "_betValue",
          "type": "uint256"
        }
      ],
      "payable": false,
      "stateMutability": "nonpayable",
      "type": "constructor"
    },
    {
      "anonymous": false,
      "inputs": [],
      "name": "Bet",
      "type": "event"
    },
    {
      "anonymous": false,
      "inputs": [],
      "name": "Play",
      "type": "event"
    },
    {
      "constant": false,
      "inputs": [],
      "name": "destroy",
      "outputs": [],
      "payable": false,
      "stateMutability": "nonpayable",
      "type": "function"
    },
    {
      "constant": false,
      "inputs": [],
      "name": "bet",
      "outputs": [],
      "payable": true,
      "stateMutability": "payable",
      "type": "function"
    },
    {
      "constant": false,
      "inputs": [],
      "name": "startLottery",
      "outputs": [],
      "payable": false,
      "stateMutability": "nonpayable",
      "type": "function"
    }
  ],
  "bytecode": "0x6080604052601e60075534801561001557600080fd5b5060405160208061094483398101806040528101908080519060200190929190505050336000806101000a81548173ffffffffffffffffffffffffffffffffffffffff021916908373ffffffffffffffffffffffffffffffffffffffff160217905550600060028190555060008114151561009257806001819055505b506108a2806100a26000396000f3006080604052600436106100ba576000357c0100000000000000000000000000000000000000000000000000000000900463ffffffff16806311610c25146100bf578063160344e2146100c95780631a8ba72f146100e057806383197ef01461010b5780638da5cb5b14610122578063955a015b14610179578063a7a38f0b146101a4578063af3fac401461021f578063e08a96cd1461024a578063f71d96cb14610275578063fe188184146102e2578063fe5e185314610339575b600080fd5b6100c7610364565b005b3480156100d557600080fd5b506100de61042b565b005b3480156100ec57600080fd5b506100f56105df565b6040518082815260200191505060405180910390f35b34801561011757600080fd5b506101206105e5565b005b34801561012e57600080fd5b50610137610676565b604051808273ffffffffffffffffffffffffffffffffffffffff1673ffffffffffffffffffffffffffffffffffffffff16815260200191505060405180910390f35b34801561018557600080fd5b5061018e61069b565b6040518082815260200191505060405180910390f35b3480156101b057600080fd5b506101cf600480360381019080803590602001909291905050506106a1565b604051808481526020018373ffffffffffffffffffffffffffffffffffffffff1673ffffffffffffffffffffffffffffffffffffffff168152602001828152602001935050505060405180910390f35b34801561022b57600080fd5b506102346106fa565b6040518082815260200191505060405180910390f35b34801561025657600080fd5b5061025f610700565b6040518082815260200191505060405180910390f35b34801561028157600080fd5b506102a060048036038101908080359060200190929190505050610706565b604051808273ffffffffffffffffffffffffffffffffffffffff1673ffffffffffffffffffffffffffffffffffffffff16815260200191505060405180910390f35b3480156102ee57600080fd5b506102f7610744565b604051808273ffffffffffffffffffffffffffffffffffffffff1673ffffffffffffffffffffffffffffffffffffffff16815260200191505060405180910390f35b34801561034557600080fd5b5061034e61076a565b6040518082815260200191505060405180910390f35b600154341015151561037557600080fd5b60046000815480929190600101919050555060083390806001815401808255809150509060018203906000526020600020016000909192909190916101000a81548173ffffffffffffffffffffffffffffffffffffffff021916908373ffffffffffffffffffffffffffffffffffffffff16021790555050346003600082825401925050819055507fc8a76494371a482af37ae607cb79e4474f7ee121bc6f302710f014aad1de96e960405160405180910390a1565b60006008805490504381151561043d57fe5b06905060088181548110151561044f57fe5b9060005260206000200160009054906101000a900473ffffffffffffffffffffffffffffffffffffffff16600560006101000a81548173ffffffffffffffffffffffffffffffffffffffff021916908373ffffffffffffffffffffffffffffffffffffffff16021790555060066060604051908101604052806003548152602001600560009054906101000a900473ffffffffffffffffffffffffffffffffffffffff1673ffffffffffffffffffffffffffffffffffffffff16815260200143815250908060018154018082558091505090600182039060005260206000209060030201600090919290919091506000820151816000015560208201518160010160006101000a81548173ffffffffffffffffffffffffffffffffffffffff021916908373ffffffffffffffffffffffffffffffffffffffff160217905550604082015181600201555050506105a481610770565b6001600254016002819055507f0e2dce69863a6c53f7fa0fbb11bf6e290e55b8caaefb0151cdb326598a0525b660405160405180910390a150565b60045481565b6000809054906101000a900473ffffffffffffffffffffffffffffffffffffffff1673ffffffffffffffffffffffffffffffffffffffff163373ffffffffffffffffffffffffffffffffffffffff161415610674576000809054906101000a900473ffffffffffffffffffffffffffffffffffffffff1673ffffffffffffffffffffffffffffffffffffffff16ff5b565b6000809054906101000a900473ffffffffffffffffffffffffffffffffffffffff1681565b60025481565b6006818154811015156106b057fe5b90600052602060002090600302016000915090508060000154908060010160009054906101000a900473ffffffffffffffffffffffffffffffffffffffff16908060020154905083565b60015481565b60075481565b60088181548110151561071557fe5b906000526020600020016000915054906101000a900473ffffffffffffffffffffffffffffffffffffffff1681565b600560009054906101000a900473ffffffffffffffffffffffffffffffffffffffff1681565b60035481565b6000600354905060088281548110151561078657fe5b9060005260206000200160009054906101000a900473ffffffffffffffffffffffffffffffffffffffff1673ffffffffffffffffffffffffffffffffffffffff166108fc829081150290604051600060405180830381858888f193505050501580156107f6573d6000803e3d6000fd5b506107ff610803565b5050565b60006008816108129190610825565b5060006003819055506000600481905550565b81548183558181111561084c5781836000526020600020918201910161084b9190610851565b5b505050565b61087391905b8082111561086f576000816000905550600101610857565b5090565b905600a165627a7a72305820a598d37253cf8d898e201031c897401b6afa70bde521b7faafcebb282e4815940029",
  "source": "pragma solidity ^0.4.24;\r\n\r\ncontract DuomlyRoulette {\r\n  struct LastGame {\r\n    uint value;\r\n    address winnerAddress;\r\n    uint blockNumber;\r\n  }\r\n\r\n  event Bet();\r\n  event Play();\r\n\r\n  address public owner;\r\n  uint256 public betValue;\r\n  uint256 public games;\r\n  uint256 public totalBet;\r\n  uint256 public betsCount;\r\n  address public lastWinner;\r\n  LastGame[] public history;\r\n  uint256 public maxAmountOfBets = 30;\r\n  address[] public players;\r\n\r\n  function DuomlyRoulette(uint256 _betValue) public {\r\n    owner = msg.sender;\r\n    games = 0;\r\n    if(_betValue != 0 ) betValue = _betValue;\r\n  }\r\n\r\n  function destroy() public {\r\n    if(msg.sender == owner) selfdestruct(owner);\r\n  }\r\n\r\n  function bet() public payable {\r\n    require(msg.value >= betValue);\r\n    betsCount++;\r\n    players.push(msg.sender);\r\n    totalBet += msg.value;\r\n    emit Bet();\r\n  }\r\n\r\n  function startLottery() public {\r\n    uint256 winnerNumber = block.number % players.length;\r\n    lastWinner = players[winnerNumber];\r\n    history.push(LastGame(totalBet, lastWinner, block.number));\r\n    givemoney(winnerNumber);\r\n    games = games + 1;\r\n    emit Play();\r\n  }\r\n\r\n  function resetData() internal {\r\n    players.length = 0;\r\n    totalBet = 0;\r\n    betsCount = 0;\r\n  }\r\n\r\n  function givemoney(uint256 winner) internal {\r\n    uint256 winnerEtherAmount = totalBet;\r\n    players[winner].transfer(winnerEtherAmount);\r\n    resetData();\r\n  }\r\n}\r\n",
  "sourcePath": "C:\\Users\\benji.santos\\Desktop\\duomly-dapp\\blockchain\\contracts\\DuomlyRoulette.sol",
  "compiler": {
    "name": "solc",
    "version": "0.4.24+commit.e67f0147.Emscripten.clang"
  },
  "schemaVersion": "2.0.1",
  "updatedAt": "2018-07-31T16:08:33.255Z"
}